{
  "contractName": "NFTLootBox",
  "abi": [
    {
      "inputs": [],
      "stateMutability": "nonpayable",
      "type": "constructor"
    },
    {
      "anonymous": false,
      "inputs": [
        {
          "indexed": true,
          "internalType": "address",
          "name": "owner",
          "type": "address"
        },
        {
          "indexed": true,
          "internalType": "address",
          "name": "approved",
          "type": "address"
        },
        {
          "indexed": true,
          "internalType": "uint256",
          "name": "tokenId",
          "type": "uint256"
        }
      ],
      "name": "Approval",
      "type": "event"
    },
    {
      "anonymous": false,
      "inputs": [
        {
          "indexed": true,
          "internalType": "address",
          "name": "owner",
          "type": "address"
        },
        {
          "indexed": true,
          "internalType": "address",
          "name": "operator",
          "type": "address"
        },
        {
          "indexed": false,
          "internalType": "bool",
          "name": "approved",
          "type": "bool"
        }
      ],
      "name": "ApprovalForAll",
      "type": "event"
    },
    {
      "anonymous": false,
      "inputs": [
        {
          "indexed": true,
          "internalType": "address",
          "name": "previousOwner",
          "type": "address"
        },
        {
          "indexed": true,
          "internalType": "address",
          "name": "newOwner",
          "type": "address"
        }
      ],
      "name": "OwnershipTransferred",
      "type": "event"
    },
    {
      "anonymous": false,
      "inputs": [
        {
          "indexed": true,
          "internalType": "address",
          "name": "from",
          "type": "address"
        },
        {
          "indexed": true,
          "internalType": "address",
          "name": "to",
          "type": "address"
        },
        {
          "indexed": true,
          "internalType": "uint256",
          "name": "tokenId",
          "type": "uint256"
        }
      ],
      "name": "Transfer",
      "type": "event"
    },
    {
      "inputs": [
        {
          "internalType": "address",
          "name": "to",
          "type": "address"
        },
        {
          "internalType": "uint256",
          "name": "tokenId",
          "type": "uint256"
        }
      ],
      "name": "approve",
      "outputs": [],
      "stateMutability": "nonpayable",
      "type": "function"
    },
    {
      "inputs": [
        {
          "internalType": "address",
          "name": "owner",
          "type": "address"
        }
      ],
      "name": "balanceOf",
      "outputs": [
        {
          "internalType": "uint256",
          "name": "",
          "type": "uint256"
        }
      ],
      "stateMutability": "view",
      "type": "function",
      "constant": true
    },
    {
      "inputs": [
        {
          "internalType": "uint256",
          "name": "tokenId",
          "type": "uint256"
        }
      ],
      "name": "getApproved",
      "outputs": [
        {
          "internalType": "address",
          "name": "",
          "type": "address"
        }
      ],
      "stateMutability": "view",
      "type": "function",
      "constant": true
    },
    {
      "inputs": [
        {
          "internalType": "address",
          "name": "owner",
          "type": "address"
        },
        {
          "internalType": "address",
          "name": "operator",
          "type": "address"
        }
      ],
      "name": "isApprovedForAll",
      "outputs": [
        {
          "internalType": "bool",
          "name": "",
          "type": "bool"
        }
      ],
      "stateMutability": "view",
      "type": "function",
      "constant": true
    },
    {
      "inputs": [],
      "name": "name",
      "outputs": [
        {
          "internalType": "string",
          "name": "",
          "type": "string"
        }
      ],
      "stateMutability": "view",
      "type": "function",
      "constant": true
    },
    {
      "inputs": [],
      "name": "owner",
      "outputs": [
        {
          "internalType": "address",
          "name": "",
          "type": "address"
        }
      ],
      "stateMutability": "view",
      "type": "function",
      "constant": true
    },
    {
      "inputs": [
        {
          "internalType": "uint256",
          "name": "tokenId",
          "type": "uint256"
        }
      ],
      "name": "ownerOf",
      "outputs": [
        {
          "internalType": "address",
          "name": "",
          "type": "address"
        }
      ],
      "stateMutability": "view",
      "type": "function",
      "constant": true
    },
    {
      "inputs": [],
      "name": "renounceOwnership",
      "outputs": [],
      "stateMutability": "nonpayable",
      "type": "function"
    },
    {
      "inputs": [
        {
          "internalType": "address",
          "name": "from",
          "type": "address"
        },
        {
          "internalType": "address",
          "name": "to",
          "type": "address"
        },
        {
          "internalType": "uint256",
          "name": "tokenId",
          "type": "uint256"
        }
      ],
      "name": "safeTransferFrom",
      "outputs": [],
      "stateMutability": "nonpayable",
      "type": "function"
    },
    {
      "inputs": [
        {
          "internalType": "address",
          "name": "from",
          "type": "address"
        },
        {
          "internalType": "address",
          "name": "to",
          "type": "address"
        },
        {
          "internalType": "uint256",
          "name": "tokenId",
          "type": "uint256"
        },
        {
          "internalType": "bytes",
          "name": "data",
          "type": "bytes"
        }
      ],
      "name": "safeTransferFrom",
      "outputs": [],
      "stateMutability": "nonpayable",
      "type": "function"
    },
    {
      "inputs": [
        {
          "internalType": "address",
          "name": "operator",
          "type": "address"
        },
        {
          "internalType": "bool",
          "name": "approved",
          "type": "bool"
        }
      ],
      "name": "setApprovalForAll",
      "outputs": [],
      "stateMutability": "nonpayable",
      "type": "function"
    },
    {
      "inputs": [
        {
          "internalType": "bytes4",
          "name": "interfaceId",
          "type": "bytes4"
        }
      ],
      "name": "supportsInterface",
      "outputs": [
        {
          "internalType": "bool",
          "name": "",
          "type": "bool"
        }
      ],
      "stateMutability": "view",
      "type": "function",
      "constant": true
    },
    {
      "inputs": [],
      "name": "symbol",
      "outputs": [
        {
          "internalType": "string",
          "name": "",
          "type": "string"
        }
      ],
      "stateMutability": "view",
      "type": "function",
      "constant": true
    },
    {
      "inputs": [
        {
          "internalType": "uint256",
          "name": "tokenId",
          "type": "uint256"
        }
      ],
      "name": "tokenURI",
      "outputs": [
        {
          "internalType": "string",
          "name": "",
          "type": "string"
        }
      ],
      "stateMutability": "view",
      "type": "function",
      "constant": true
    },
    {
      "inputs": [
        {
          "internalType": "address",
          "name": "from",
          "type": "address"
        },
        {
          "internalType": "address",
          "name": "to",
          "type": "address"
        },
        {
          "internalType": "uint256",
          "name": "tokenId",
          "type": "uint256"
        }
      ],
      "name": "transferFrom",
      "outputs": [],
      "stateMutability": "nonpayable",
      "type": "function"
    },
    {
      "inputs": [
        {
          "internalType": "address",
          "name": "newOwner",
          "type": "address"
        }
      ],
      "name": "transferOwnership",
      "outputs": [],
      "stateMutability": "nonpayable",
      "type": "function"
    },
    {
      "inputs": [
        {
          "internalType": "address",
          "name": "recipient",
          "type": "address"
        },
        {
          "internalType": "string",
          "name": "tokenURI",
          "type": "string"
        }
      ],
      "name": "mintNFT",
      "outputs": [
        {
          "internalType": "uint256",
          "name": "",
          "type": "uint256"
        }
      ],
      "stateMutability": "nonpayable",
      "type": "function"
    },
    {
      "inputs": [
        {
          "internalType": "address",
          "name": "tokenAddress",
          "type": "address"
        }
      ],
      "name": "setToken",
      "outputs": [
        {
          "internalType": "bool",
          "name": "",
          "type": "bool"
        }
      ],
      "stateMutability": "nonpayable",
      "type": "function"
    },
    {
      "inputs": [],
      "name": "getTokenId",
      "outputs": [
        {
          "internalType": "uint256",
          "name": "",
          "type": "uint256"
        }
      ],
      "stateMutability": "view",
      "type": "function",
      "constant": true
    }
  ],
  "bytecode": "0x60806040523480156200001157600080fd5b50604080518082018252600e81526d29b2bb32b72d1b9918aa37b5b2b760911b60208083019182528351808501909452600684526514d68dcc8c5560d21b9084015281519192916200006691600091620000fa565b5080516200007c906001906020840190620000fa565b5050506200009962000093620000a460201b60201c565b620000a8565b6064600a55620001dd565b3390565b600780546001600160a01b038381166001600160a01b0319831681179093556040519116919082907f8be0079c531659141344cd1fd0a4f28419497f9722a3daafe3b4186f6b6457e090600090a35050565b8280546200010890620001a0565b90600052602060002090601f0160209004810192826200012c576000855562000177565b82601f106200014757805160ff191683800117855562000177565b8280016001018555821562000177579182015b82811115620001775782518255916020019190600101906200015a565b506200018592915062000189565b5090565b5b808211156200018557600081556001016200018a565b600181811c90821680620001b557607f821691505b60208210811415620001d757634e487b7160e01b600052602260045260246000fd5b50919050565b6118dc80620001ed6000396000f3fe608060405234801561001057600080fd5b50600436106101215760003560e01c806370a08231116100ad578063b88d4fde11610071578063b88d4fde1461024c578063c87b56dd1461025f578063e985e9c514610272578063eacabe14146102ae578063f2fde38b146102c157600080fd5b806370a0823114610205578063715018a6146102185780638da5cb5b1461022057806395d89b4114610231578063a22cb4651461023957600080fd5b8063095ea7b3116100f4578063095ea7b3146101a4578063144fa6d7146101b957806323b872dd146101cc57806342842e0e146101df5780636352211e146101f257600080fd5b8063010a38f51461012657806301ffc9a71461014157806306fdde0314610164578063081812fc14610179575b600080fd5b61012e6102d4565b6040519081526020015b60405180910390f35b61015461014f36600461133d565b6102e4565b6040519015158152602001610138565b61016c610336565b60405161013891906113b2565b61018c6101873660046113c5565b6103c8565b6040516001600160a01b039091168152602001610138565b6101b76101b23660046113f5565b6103ef565b005b6101546101c736600461141f565b61050a565b6101b76101da36600461143a565b61054b565b6101b76101ed36600461143a565b61057c565b61018c6102003660046113c5565b610597565b61012e61021336600461141f565b6105f7565b6101b761067d565b6007546001600160a01b031661018c565b61016c610691565b6101b7610247366004611484565b6106a0565b6101b761025a366004611547565b6106af565b61016c61026d3660046113c5565b6106e7565b6101546102803660046115c3565b6001600160a01b03918216600090815260056020908152604080832093909416825291909152205460ff1690565b61012e6102bc3660046115f6565b6107f8565b6101b76102cf36600461141f565b610935565b60006102df60085490565b905090565b60006001600160e01b031982166380ac58cd60e01b148061031557506001600160e01b03198216635b5e139f60e01b145b8061033057506301ffc9a760e01b6001600160e01b03198316145b92915050565b60606000805461034590611658565b80601f016020809104026020016040519081016040528092919081815260200182805461037190611658565b80156103be5780601f10610393576101008083540402835291602001916103be565b820191906000526020600020905b8154815290600101906020018083116103a157829003601f168201915b5050505050905090565b60006103d3826109ae565b506000908152600460205260409020546001600160a01b031690565b60006103fa82610597565b9050806001600160a01b0316836001600160a01b0316141561046d5760405162461bcd60e51b815260206004820152602160248201527f4552433732313a20617070726f76616c20746f2063757272656e74206f776e656044820152603960f91b60648201526084015b60405180910390fd5b336001600160a01b038216148061048957506104898133610280565b6104fb5760405162461bcd60e51b815260206004820152603e60248201527f4552433732313a20617070726f76652063616c6c6572206973206e6f7420746f60448201527f6b656e206f776e6572206e6f7220617070726f76656420666f7220616c6c00006064820152608401610464565b6105058383610a0d565b505050565b6000610514610a7b565b6001600160a01b03821661052757600080fd5b50600980546001600160a01b0319166001600160a01b03831617905560015b919050565b6105553382610ad5565b6105715760405162461bcd60e51b815260040161046490611693565b610505838383610b53565b610505838383604051806020016040528060008152506106af565b6000818152600260205260408120546001600160a01b0316806103305760405162461bcd60e51b8152602060048201526018602482015277115490cdcc8c4e881a5b9d985b1a59081d1bdad95b88125160421b6044820152606401610464565b60006001600160a01b0382166106615760405162461bcd60e51b815260206004820152602960248201527f4552433732313a2061646472657373207a65726f206973206e6f7420612076616044820152683634b21037bbb732b960b91b6064820152608401610464565b506001600160a01b031660009081526003602052604090205490565b610685610a7b565b61068f6000610cef565b565b60606001805461034590611658565b6106ab338383610d41565b5050565b6106b93383610ad5565b6106d55760405162461bcd60e51b815260040161046490611693565b6106e184848484610e10565b50505050565b60606106f2826109ae565b6000828152600660205260408120805461070b90611658565b80601f016020809104026020016040519081016040528092919081815260200182805461073790611658565b80156107845780601f1061075957610100808354040283529160200191610784565b820191906000526020600020905b81548152906001019060200180831161076757829003601f168201915b5050505050905060006107a260408051602081019091526000815290565b90508051600014156107b5575092915050565b8151156107e75780826040516020016107cf9291906116e1565b60405160208183030381529060405292505050919050565b6107f084610e43565b949350505050565b6000610802610a7b565b600a546009546040516370a0823160e01b81526001600160a01b038681166004830152909116906370a0823190602401602060405180830381865afa15801561084f573d6000803e3d6000fd5b505050506040513d601f19601f820116820180604052508101906108739190611710565b101561087e57600080fd5b600954600a546040516323b872dd60e01b81526001600160a01b03868116600483015233602483015260448201929092529116906323b872dd906064016020604051808303816000875af11580156108da573d6000803e3d6000fd5b505050506040513d601f19601f820116820180604052508101906108fe9190611729565b5061090d600880546001019055565b600061091860085490565b90506109248482610eb6565b61092e8184610ff8565b9392505050565b61093d610a7b565b6001600160a01b0381166109a25760405162461bcd60e51b815260206004820152602660248201527f4f776e61626c653a206e6577206f776e657220697320746865207a65726f206160448201526564647265737360d01b6064820152608401610464565b6109ab81610cef565b50565b6000818152600260205260409020546001600160a01b03166109ab5760405162461bcd60e51b8152602060048201526018602482015277115490cdcc8c4e881a5b9d985b1a59081d1bdad95b88125160421b6044820152606401610464565b600081815260046020526040902080546001600160a01b0319166001600160a01b0384169081179091558190610a4282610597565b6001600160a01b03167f8c5be1e5ebec7d5bd14f71427d1e84f3dd0314c0f7b2291e5b200ac8c7c3b92560405160405180910390a45050565b6007546001600160a01b0316331461068f5760405162461bcd60e51b815260206004820181905260248201527f4f776e61626c653a2063616c6c6572206973206e6f7420746865206f776e65726044820152606401610464565b600080610ae183610597565b9050806001600160a01b0316846001600160a01b03161480610b2857506001600160a01b0380821660009081526005602090815260408083209388168352929052205460ff165b806107f05750836001600160a01b0316610b41846103c8565b6001600160a01b031614949350505050565b826001600160a01b0316610b6682610597565b6001600160a01b031614610bca5760405162461bcd60e51b815260206004820152602560248201527f4552433732313a207472616e736665722066726f6d20696e636f72726563742060448201526437bbb732b960d91b6064820152608401610464565b6001600160a01b038216610c2c5760405162461bcd60e51b8152602060048201526024808201527f4552433732313a207472616e7366657220746f20746865207a65726f206164646044820152637265737360e01b6064820152608401610464565b610c37600082610a0d565b6001600160a01b0383166000908152600360205260408120805460019290610c6090849061175c565b90915550506001600160a01b0382166000908152600360205260408120805460019290610c8e908490611773565b909155505060008181526002602052604080822080546001600160a01b0319166001600160a01b0386811691821790925591518493918716917fddf252ad1be2c89b69c2b068fc378daa952ba7f163c4a11628f55a4df523b3ef91a4505050565b600780546001600160a01b038381166001600160a01b0319831681179093556040519116919082907f8be0079c531659141344cd1fd0a4f28419497f9722a3daafe3b4186f6b6457e090600090a35050565b816001600160a01b0316836001600160a01b03161415610da35760405162461bcd60e51b815260206004820152601960248201527f4552433732313a20617070726f766520746f2063616c6c6572000000000000006044820152606401610464565b6001600160a01b03838116600081815260056020908152604080832094871680845294825291829020805460ff191686151590811790915591519182527f17307eab39ab6107e8899845ad3d59bd9653f200f220920489ca2b5937696c31910160405180910390a3505050565b610e1b848484610b53565b610e2784848484611092565b6106e15760405162461bcd60e51b81526004016104649061178b565b6060610e4e826109ae565b6000610e6560408051602081019091526000815290565b90506000815111610e85576040518060200160405280600081525061092e565b80610e8f84611190565b604051602001610ea09291906116e1565b6040516020818303038152906040529392505050565b6001600160a01b038216610f0c5760405162461bcd60e51b815260206004820181905260248201527f4552433732313a206d696e7420746f20746865207a65726f20616464726573736044820152606401610464565b6000818152600260205260409020546001600160a01b031615610f715760405162461bcd60e51b815260206004820152601c60248201527f4552433732313a20746f6b656e20616c7265616479206d696e746564000000006044820152606401610464565b6001600160a01b0382166000908152600360205260408120805460019290610f9a908490611773565b909155505060008181526002602052604080822080546001600160a01b0319166001600160a01b03861690811790915590518392907fddf252ad1be2c89b69c2b068fc378daa952ba7f163c4a11628f55a4df523b3ef908290a45050565b6000828152600260205260409020546001600160a01b03166110735760405162461bcd60e51b815260206004820152602e60248201527f45524337323155524953746f726167653a2055524920736574206f66206e6f6e60448201526d32bc34b9ba32b73a103a37b5b2b760911b6064820152608401610464565b600082815260066020908152604090912082516105059284019061128e565b60006001600160a01b0384163b1561118557604051630a85bd0160e11b81526001600160a01b0385169063150b7a02906110d69033908990889088906004016117dd565b6020604051808303816000875af1925050508015611111575060408051601f3d908101601f1916820190925261110e9181019061181a565b60015b61116b573d80801561113f576040519150601f19603f3d011682016040523d82523d6000602084013e611144565b606091505b5080516111635760405162461bcd60e51b81526004016104649061178b565b805181602001fd5b6001600160e01b031916630a85bd0160e11b1490506107f0565b506001949350505050565b6060816111b45750506040805180820190915260018152600360fc1b602082015290565b8160005b81156111de57806111c881611837565b91506111d79050600a83611868565b91506111b8565b60008167ffffffffffffffff8111156111f9576111f96114bb565b6040519080825280601f01601f191660200182016040528015611223576020820181803683370190505b5090505b84156107f05761123860018361175c565b9150611245600a8661187c565b611250906030611773565b60f81b81838151811061126557611265611890565b60200101906001600160f81b031916908160001a905350611287600a86611868565b9450611227565b82805461129a90611658565b90600052602060002090601f0160209004810192826112bc5760008555611302565b82601f106112d557805160ff1916838001178555611302565b82800160010185558215611302579182015b828111156113025782518255916020019190600101906112e7565b5061130e929150611312565b5090565b5b8082111561130e5760008155600101611313565b6001600160e01b0319811681146109ab57600080fd5b60006020828403121561134f57600080fd5b813561092e81611327565b60005b8381101561137557818101518382015260200161135d565b838111156106e15750506000910152565b6000815180845261139e81602086016020860161135a565b601f01601f19169290920160200192915050565b60208152600061092e6020830184611386565b6000602082840312156113d757600080fd5b5035919050565b80356001600160a01b038116811461054657600080fd5b6000806040838503121561140857600080fd5b611411836113de565b946020939093013593505050565b60006020828403121561143157600080fd5b61092e826113de565b60008060006060848603121561144f57600080fd5b611458846113de565b9250611466602085016113de565b9150604084013590509250925092565b80151581146109ab57600080fd5b6000806040838503121561149757600080fd5b6114a0836113de565b915060208301356114b081611476565b809150509250929050565b634e487b7160e01b600052604160045260246000fd5b600067ffffffffffffffff808411156114ec576114ec6114bb565b604051601f8501601f19908116603f01168101908282118183101715611514576115146114bb565b8160405280935085815286868601111561152d57600080fd5b858560208301376000602087830101525050509392505050565b6000806000806080858703121561155d57600080fd5b611566856113de565b9350611574602086016113de565b925060408501359150606085013567ffffffffffffffff81111561159757600080fd5b8501601f810187136115a857600080fd5b6115b7878235602084016114d1565b91505092959194509250565b600080604083850312156115d657600080fd5b6115df836113de565b91506115ed602084016113de565b90509250929050565b6000806040838503121561160957600080fd5b611612836113de565b9150602083013567ffffffffffffffff81111561162e57600080fd5b8301601f8101851361163f57600080fd5b61164e858235602084016114d1565b9150509250929050565b600181811c9082168061166c57607f821691505b6020821081141561168d57634e487b7160e01b600052602260045260246000fd5b50919050565b6020808252602e908201527f4552433732313a2063616c6c6572206973206e6f7420746f6b656e206f776e6560408201526d1c881b9bdc88185c1c1c9bdd995960921b606082015260800190565b600083516116f381846020880161135a565b83519083019061170781836020880161135a565b01949350505050565b60006020828403121561172257600080fd5b5051919050565b60006020828403121561173b57600080fd5b815161092e81611476565b634e487b7160e01b600052601160045260246000fd5b60008282101561176e5761176e611746565b500390565b6000821982111561178657611786611746565b500190565b60208082526032908201527f4552433732313a207472616e7366657220746f206e6f6e20455243373231526560408201527131b2b4bb32b91034b6b83632b6b2b73a32b960711b606082015260800190565b6001600160a01b038581168252841660208201526040810183905260806060820181905260009061181090830184611386565b9695505050505050565b60006020828403121561182c57600080fd5b815161092e81611327565b600060001982141561184b5761184b611746565b5060010190565b634e487b7160e01b600052601260045260246000fd5b60008261187757611877611852565b500490565b60008261188b5761188b611852565b500690565b634e487b7160e01b600052603260045260246000fdfea264697066735822122064326b518df60e6c74e180f9849a4c8dff30c54be4aa50932997b8ea0e595f6564736f6c634300080a0033",
  "immutableReferences": {},
  "source": "// SPDX-License-Identifier: MIT\npragma solidity 0.8.10;\n\nimport \"@openzeppelin/contracts/token/ERC721/ERC721.sol\";\nimport \"@openzeppelin/contracts/utils/Counters.sol\";\nimport \"@openzeppelin/contracts/access/Ownable.sol\";\nimport \"@openzeppelin/contracts/token/ERC721/extensions/ERC721URIStorage.sol\";\nimport \"@openzeppelin/contracts/token/ERC20/IERC20.sol\";\n\ncontract NFTLootBox is ERC721URIStorage, Ownable {\n    using Counters for Counters.Counter;\n    Counters.Counter private _tokenIds;\n    IERC20 token;\n    uint256 nftPrice;\n\n    constructor() ERC721(\"SevenZ721Token\", \"SZ721T\") {\n        nftPrice = 100;\n    }\n\n    //  ERC20  NFT \n    function mintNFT(address recipient, string memory tokenURI)\n        public\n        onlyOwner\n        returns (uint256)\n    {\n        require(token.balanceOf(recipient) >= nftPrice);\n\n        token.transferFrom(recipient, msg.sender, nftPrice);\n\n        _tokenIds.increment();\n        uint256 newItemId = _tokenIds.current();\n        _mint(recipient, newItemId);\n        _setTokenURI(newItemId, tokenURI);\n\n        return newItemId;\n    }\n\n    // NFT    ERC20  \n    function setToken(address tokenAddress) public onlyOwner returns (bool) {\n        require(tokenAddress != address(0x0));\n        token = IERC20(tokenAddress);\n        return true;\n    }\n\n    //TokenId \n    function getTokenId() public view returns (uint256) {\n        return _tokenIds.current();\n    }\n}\n",
  "sourcePath": "/Users/gimhyeon-u/Desktop/github/BEB-06-SECOND-7ZO/contract/contracts/SevenZ721Token.sol",
  "compiler": {
    "name": "solc",
    "version": "0.8.10+commit.fc410830.Emscripten.clang"
  },
  "schemaVersion": "3.4.10",
  "updatedAt": "2022-11-03T09:52:20.797Z",
  "networkType": "ethereum",
  "devdoc": {
    "kind": "dev",
    "methods": {
      "approve(address,uint256)": {
        "details": "See {IERC721-approve}."
      },
      "balanceOf(address)": {
        "details": "See {IERC721-balanceOf}."
      },
      "getApproved(uint256)": {
        "details": "See {IERC721-getApproved}."
      },
      "isApprovedForAll(address,address)": {
        "details": "See {IERC721-isApprovedForAll}."
      },
      "name()": {
        "details": "See {IERC721Metadata-name}."
      },
      "owner()": {
        "details": "Returns the address of the current owner."
      },
      "ownerOf(uint256)": {
        "details": "See {IERC721-ownerOf}."
      },
      "renounceOwnership()": {
        "details": "Leaves the contract without owner. It will not be possible to call `onlyOwner` functions anymore. Can only be called by the current owner. NOTE: Renouncing ownership will leave the contract without an owner, thereby removing any functionality that is only available to the owner."
      },
      "safeTransferFrom(address,address,uint256)": {
        "details": "See {IERC721-safeTransferFrom}."
      },
      "safeTransferFrom(address,address,uint256,bytes)": {
        "details": "See {IERC721-safeTransferFrom}."
      },
      "setApprovalForAll(address,bool)": {
        "details": "See {IERC721-setApprovalForAll}."
      },
      "supportsInterface(bytes4)": {
        "details": "See {IERC165-supportsInterface}."
      },
      "symbol()": {
        "details": "See {IERC721Metadata-symbol}."
      },
      "tokenURI(uint256)": {
        "details": "See {IERC721Metadata-tokenURI}."
      },
      "transferFrom(address,address,uint256)": {
        "details": "See {IERC721-transferFrom}."
      },
      "transferOwnership(address)": {
        "details": "Transfers ownership of the contract to a new account (`newOwner`). Can only be called by the current owner."
      }
    },
    "version": 1
  },
  "userdoc": {
    "kind": "user",
    "methods": {},
    "version": 1
  }
}