{
  "contractName": "SevenZtoken",
  "abi": [
    {
      "inputs": [
        {
          "internalType": "string",
          "name": "getName",
          "type": "string"
        },
        {
          "internalType": "string",
          "name": "getSymbol",
          "type": "string"
        }
      ],
      "stateMutability": "nonpayable",
      "type": "constructor"
    },
    {
      "anonymous": false,
      "inputs": [
        {
          "indexed": true,
          "internalType": "address",
          "name": "owner",
          "type": "address"
        },
        {
          "indexed": true,
          "internalType": "address",
          "name": "spender",
          "type": "address"
        },
        {
          "indexed": false,
          "internalType": "uint256",
          "name": "oldAmount",
          "type": "uint256"
        },
        {
          "indexed": false,
          "internalType": "uint256",
          "name": "amount",
          "type": "uint256"
        }
      ],
      "name": "Approval",
      "type": "event"
    },
    {
      "anonymous": false,
      "inputs": [
        {
          "indexed": true,
          "internalType": "address",
          "name": "from",
          "type": "address"
        },
        {
          "indexed": true,
          "internalType": "address",
          "name": "to",
          "type": "address"
        },
        {
          "indexed": false,
          "internalType": "uint256",
          "name": "amount",
          "type": "uint256"
        }
      ],
      "name": "Transfer",
      "type": "event"
    },
    {
      "anonymous": false,
      "inputs": [
        {
          "indexed": true,
          "internalType": "address",
          "name": "spender",
          "type": "address"
        },
        {
          "indexed": true,
          "internalType": "address",
          "name": "from",
          "type": "address"
        },
        {
          "indexed": true,
          "internalType": "address",
          "name": "to",
          "type": "address"
        },
        {
          "indexed": false,
          "internalType": "uint256",
          "name": "amount",
          "type": "uint256"
        }
      ],
      "name": "Transfer",
      "type": "event"
    },
    {
      "inputs": [
        {
          "internalType": "address",
          "name": "",
          "type": "address"
        },
        {
          "internalType": "address",
          "name": "",
          "type": "address"
        }
      ],
      "name": "_allowances",
      "outputs": [
        {
          "internalType": "uint256",
          "name": "",
          "type": "uint256"
        }
      ],
      "stateMutability": "view",
      "type": "function",
      "constant": true
    },
    {
      "inputs": [],
      "name": "_decimals",
      "outputs": [
        {
          "internalType": "uint8",
          "name": "",
          "type": "uint8"
        }
      ],
      "stateMutability": "view",
      "type": "function",
      "constant": true
    },
    {
      "inputs": [],
      "name": "_name",
      "outputs": [
        {
          "internalType": "string",
          "name": "",
          "type": "string"
        }
      ],
      "stateMutability": "view",
      "type": "function",
      "constant": true
    },
    {
      "inputs": [],
      "name": "_symbol",
      "outputs": [
        {
          "internalType": "string",
          "name": "",
          "type": "string"
        }
      ],
      "stateMutability": "view",
      "type": "function",
      "constant": true
    },
    {
      "inputs": [],
      "name": "_totalSupply",
      "outputs": [
        {
          "internalType": "uint256",
          "name": "",
          "type": "uint256"
        }
      ],
      "stateMutability": "view",
      "type": "function",
      "constant": true
    },
    {
      "inputs": [],
      "name": "name",
      "outputs": [
        {
          "internalType": "string",
          "name": "",
          "type": "string"
        }
      ],
      "stateMutability": "view",
      "type": "function",
      "constant": true
    },
    {
      "inputs": [],
      "name": "symbol",
      "outputs": [
        {
          "internalType": "string",
          "name": "",
          "type": "string"
        }
      ],
      "stateMutability": "view",
      "type": "function",
      "constant": true
    },
    {
      "inputs": [],
      "name": "decimals",
      "outputs": [
        {
          "internalType": "uint8",
          "name": "",
          "type": "uint8"
        }
      ],
      "stateMutability": "view",
      "type": "function",
      "constant": true
    },
    {
      "inputs": [],
      "name": "totalSupply",
      "outputs": [
        {
          "internalType": "uint256",
          "name": "",
          "type": "uint256"
        }
      ],
      "stateMutability": "view",
      "type": "function",
      "constant": true
    },
    {
      "inputs": [
        {
          "internalType": "address",
          "name": "account",
          "type": "address"
        }
      ],
      "name": "balanceOf",
      "outputs": [
        {
          "internalType": "uint256",
          "name": "",
          "type": "uint256"
        }
      ],
      "stateMutability": "view",
      "type": "function",
      "constant": true
    },
    {
      "inputs": [
        {
          "internalType": "address",
          "name": "recipient",
          "type": "address"
        },
        {
          "internalType": "uint256",
          "name": "amount",
          "type": "uint256"
        }
      ],
      "name": "transfer",
      "outputs": [
        {
          "internalType": "bool",
          "name": "",
          "type": "bool"
        }
      ],
      "stateMutability": "nonpayable",
      "type": "function"
    },
    {
      "inputs": [
        {
          "internalType": "address",
          "name": "owner",
          "type": "address"
        },
        {
          "internalType": "address",
          "name": "spender",
          "type": "address"
        }
      ],
      "name": "allowance",
      "outputs": [
        {
          "internalType": "uint256",
          "name": "",
          "type": "uint256"
        }
      ],
      "stateMutability": "view",
      "type": "function",
      "constant": true
    },
    {
      "inputs": [
        {
          "internalType": "address",
          "name": "spender",
          "type": "address"
        },
        {
          "internalType": "uint256",
          "name": "amount",
          "type": "uint256"
        }
      ],
      "name": "approve",
      "outputs": [
        {
          "internalType": "bool",
          "name": "",
          "type": "bool"
        }
      ],
      "stateMutability": "nonpayable",
      "type": "function"
    },
    {
      "inputs": [
        {
          "internalType": "address",
          "name": "sender",
          "type": "address"
        },
        {
          "internalType": "address",
          "name": "recipient",
          "type": "address"
        },
        {
          "internalType": "uint256",
          "name": "amount",
          "type": "uint256"
        }
      ],
      "name": "transferFrom",
      "outputs": [
        {
          "internalType": "bool",
          "name": "",
          "type": "bool"
        }
      ],
      "stateMutability": "nonpayable",
      "type": "function"
    }
  ],
  "bytecode": "0x60806040523480156200001157600080fd5b5060405162000cdc38038062000cdc833981016040819052620000349162000203565b81516200004990600390602085019062000090565b5080516200005f90600490602084019062000090565b50506005805460ff191660121790555064e8d4a51000600281905533600090815260208190526040902055620002aa565b8280546200009e906200026d565b90600052602060002090601f016020900481019282620000c257600085556200010d565b82601f10620000dd57805160ff19168380011785556200010d565b828001600101855582156200010d579182015b828111156200010d578251825591602001919060010190620000f0565b506200011b9291506200011f565b5090565b5b808211156200011b576000815560010162000120565b634e487b7160e01b600052604160045260246000fd5b600082601f8301126200015e57600080fd5b81516001600160401b03808211156200017b576200017b62000136565b604051601f8301601f19908116603f01168101908282118183101715620001a657620001a662000136565b81604052838152602092508683858801011115620001c357600080fd5b600091505b83821015620001e75785820183015181830184015290820190620001c8565b83821115620001f95760008385830101525b9695505050505050565b600080604083850312156200021757600080fd5b82516001600160401b03808211156200022f57600080fd5b6200023d868387016200014c565b935060208501519150808211156200025457600080fd5b5062000263858286016200014c565b9150509250929050565b600181811c908216806200028257607f821691505b60208210811415620002a457634e487b7160e01b600052602260045260246000fd5b50919050565b610a2280620002ba6000396000f3fe608060405234801561001057600080fd5b50600436106100ea5760003560e01c80633eaaf86b1161008c578063a9059cbb11610066578063a9059cbb146101e0578063b09f1266146101f3578063d28d8852146101fb578063dd62ed3e1461020357600080fd5b80633eaaf86b146101a657806370a08231146101af57806395d89b41146101d857600080fd5b806318160ddd116100c857806318160ddd1461016557806323b872dd1461016d578063313ce5671461018057806332424aa31461019957600080fd5b8063024c2ddd146100ef57806306fdde031461012d578063095ea7b314610142575b600080fd5b61011a6100fd36600461085c565b600160209081526000928352604080842090915290825290205481565b6040519081526020015b60405180910390f35b61013561023c565b604051610124919061088f565b6101556101503660046108e4565b6102ce565b6040519015158152602001610124565b60025461011a565b61015561017b36600461090e565b61030a565b60055460ff165b60405160ff9091168152602001610124565b6005546101879060ff1681565b61011a60025481565b61011a6101bd36600461094a565b6001600160a01b031660009081526020819052604090205490565b610135610418565b6101556101ee3660046108e4565b610427565b61013561047d565b61013561050b565b61011a61021136600461085c565b6001600160a01b03918216600090815260016020908152604080832093909416825291909152205490565b60606003805461024b9061096c565b80601f01602080910402602001604051908101604052809291908181526020018280546102779061096c565b80156102c45780601f10610299576101008083540402835291602001916102c4565b820191906000526020600020905b8154815290600101906020018083116102a757829003601f168201915b5050505050905090565b3360008181526001602090815260408083206001600160a01b0387168452909152812054909161030090858386610518565b5060019392505050565b60006103178484846106b7565b826001600160a01b0316846001600160a01b0316336001600160a01b03167fd1398bee19313d6bf672ccb116e51f4a1a947e91c757907f51fbb5b5e56c698f8560405161036691815260200190565b60405180910390a46001600160a01b0384166000908152600160209081526040808320338452909152902054828110156103f85760405162461bcd60e51b815260206004820152602860248201527f45524332303a207472616e7366657220616d6f756e74206578636565647320616044820152676c6c6f77616e636560c01b60648201526084015b60405180910390fd5b61040d85338361040887826109bd565b610518565b506001949350505050565b60606004805461024b9061096c565b60006104343384846106b7565b6040518281526001600160a01b0384169033907fddf252ad1be2c89b69c2b068fc378daa952ba7f163c4a11628f55a4df523b3ef9060200160405180910390a350600192915050565b6004805461048a9061096c565b80601f01602080910402602001604051908101604052809291908181526020018280546104b69061096c565b80156105035780601f106104d857610100808354040283529160200191610503565b820191906000526020600020905b8154815290600101906020018083116104e657829003601f168201915b505050505081565b6003805461048a9061096c565b6001600160a01b03841661057a5760405162461bcd60e51b8152602060048201526024808201527f45524332303a20617070726f76652066726f6d20746865207a65726f206164646044820152637265737360e01b60648201526084016103ef565b6001600160a01b0383166105db5760405162461bcd60e51b815260206004820152602260248201527f45524332303a20617070726f766520746f20746865207a65726f206164647265604482015261737360f01b60648201526084016103ef565b6001600160a01b03808516600090815260016020908152604080832093871683529290522054821461064f5760405162461bcd60e51b815260206004820152601c60248201527f45524332303a20696e76616c69642063757272656e74416d6f756e740000000060448201526064016103ef565b6001600160a01b0384811660008181526001602090815260408083209488168084529482529182902085905581518681529081018590527fb3fd5071835887567a0671151121894ddccc2842f1d10bedad13e0d17cace9a7910160405180910390a350505050565b6001600160a01b03831661071b5760405162461bcd60e51b815260206004820152602560248201527f45524332303a207472616e736665722066726f6d20746865207a65726f206164604482015264647265737360d81b60648201526084016103ef565b6001600160a01b03821661077d5760405162461bcd60e51b815260206004820152602360248201527f45524332303a207472616e7366657220746f20746865207a65726f206164647260448201526265737360e81b60648201526084016103ef565b6001600160a01b038316600090815260208190526040902054818110156107f55760405162461bcd60e51b815260206004820152602660248201527f45524332303a207472616e7366657220616d6f756e7420657863656564732062604482015265616c616e636560d01b60648201526084016103ef565b6107ff82826109bd565b6001600160a01b0380861660009081526020819052604080822093909355908516815290812080548492906108359084906109d4565b909155505050505050565b80356001600160a01b038116811461085757600080fd5b919050565b6000806040838503121561086f57600080fd5b61087883610840565b915061088660208401610840565b90509250929050565b600060208083528351808285015260005b818110156108bc578581018301518582016040015282016108a0565b818111156108ce576000604083870101525b50601f01601f1916929092016040019392505050565b600080604083850312156108f757600080fd5b61090083610840565b946020939093013593505050565b60008060006060848603121561092357600080fd5b61092c84610840565b925061093a60208501610840565b9150604084013590509250925092565b60006020828403121561095c57600080fd5b61096582610840565b9392505050565b600181811c9082168061098057607f821691505b602082108114156109a157634e487b7160e01b600052602260045260246000fd5b50919050565b634e487b7160e01b600052601160045260246000fd5b6000828210156109cf576109cf6109a7565b500390565b600082198211156109e7576109e76109a7565b50019056fea264697066735822122030f8284ba7d14f0b8ebf84f2eda55d7be10e13aa48e112f6a018aaa05cbaea3c64736f6c634300080a0033",
  "immutableReferences": {},
  "source": "// SPDX-License-Identifier: GPL-3.0\npragma solidity ^0.8.10;\n\ninterface ERC20Interface {\n    function totalSupply() external view returns (uint256);\n\n    function balanceOf(address account) external view returns (uint256);\n\n    function transfer(address recipient, uint256 amount)\n        external\n        returns (bool);\n\n    function approve(address spender, uint256 amount) external returns (bool);\n\n    function allowance(address owner, address spender)\n        external\n        view\n        returns (uint256);\n\n    function transferFrom(\n        address spender,\n        address recipient,\n        uint256 amount\n    ) external returns (bool);\n\n    event Transfer(address indexed from, address indexed to, uint256 amount);\n    event Transfer(\n        address indexed spender,\n        address indexed from,\n        address indexed to,\n        uint256 amount\n    );\n    event Approval(\n        address indexed owner,\n        address indexed spender,\n        uint256 oldAmount,\n        uint256 amount\n    );\n}\n\ncontract SevenZtoken is ERC20Interface {\n    mapping(address => uint256) private _balances;\n    mapping(address => mapping(address => uint256)) public _allowances;\n\n    uint256 public _totalSupply;\n    string public _name;\n    string public _symbol;\n    uint8 public _decimals;\n\n    constructor(string memory getName, string memory getSymbol) {\n        _name = getName;\n        _symbol = getSymbol;\n        _decimals = 18;\n        _totalSupply = 1000000000000;\n        _balances[msg.sender] = _totalSupply;\n    }\n\n    function name() public view returns (string memory) {\n        return _name;\n    }\n\n    function symbol() public view returns (string memory) {\n        return _symbol;\n    }\n\n    function decimals() public view returns (uint8) {\n        return _decimals;\n    }\n\n    // ERC20   \n    function totalSupply() external view virtual override returns (uint256) {\n        return _totalSupply;\n    }\n\n    // Owner   \n    function balanceOf(address account)\n        external\n        view\n        virtual\n        override\n        returns (uint256)\n    {\n        return _balances[account];\n    }\n\n    // ERC20 \n    function transfer(address recipient, uint256 amount)\n        public\n        virtual\n        override\n        returns (bool)\n    {\n        _transfer(msg.sender, recipient, amount);\n        emit Transfer(msg.sender, recipient, amount);\n        return true;\n    }\n\n    //\n    // owner spender     \n    function allowance(address owner, address spender)\n        external\n        view\n        override\n        returns (uint256)\n    {\n        return _allowances[owner][spender];\n    }\n\n    // spender  value     .\n    //   Approval    .\n    function approve(address spender, uint256 amount)\n        external\n        virtual\n        override\n        returns (bool)\n    {\n        uint256 currentAllownace = _allowances[msg.sender][spender];\n        // require(\n        //     currentAllownace >= amount,\n        //     \"ERC20: Transfer amount exceeds allowance\"\n        // );\n        _approve(msg.sender, spender, currentAllownace, amount);\n        return true;\n    }\n\n    // spender      \n    function transferFrom(\n        address sender,\n        address recipient,\n        uint256 amount\n    ) external virtual override returns (bool) {\n        _transfer(sender, recipient, amount);\n        emit Transfer(msg.sender, sender, recipient, amount);\n        uint256 currentAllowance = _allowances[sender][msg.sender];\n        require(\n            currentAllowance >= amount,\n            \"ERC20: transfer amount exceeds allowance\"\n        );\n        _approve(\n            sender,\n            msg.sender,\n            currentAllowance,\n            currentAllowance - amount\n        );\n        return true;\n    }\n\n    function _transfer(\n        address sender,\n        address recipient,\n        uint256 amount\n    ) internal virtual {\n        require(sender != address(0), \"ERC20: transfer from the zero address\");\n        require(recipient != address(0), \"ERC20: transfer to the zero address\");\n        uint256 senderBalance = _balances[sender];\n        require(\n            senderBalance >= amount,\n            \"ERC20: transfer amount exceeds balance\"\n        );\n        _balances[sender] = senderBalance - amount;\n        _balances[recipient] += amount;\n    }\n\n    function _approve(\n        address owner,\n        address spender,\n        uint256 currentAmount,\n        uint256 amount\n    ) internal virtual {\n        require(owner != address(0), \"ERC20: approve from the zero address\");\n        require(spender != address(0), \"ERC20: approve to the zero address\");\n        require(\n            currentAmount == _allowances[owner][spender],\n            \"ERC20: invalid currentAmount\"\n        );\n        _allowances[owner][spender] = amount;\n        emit Approval(owner, spender, currentAmount, amount);\n    }\n}",
  "sourcePath": "/Users/gimhyeon-u/Desktop/github/BEB-06-SECOND-7ZO/contract/contracts/SevenZ20Token.sol",
  "compiler": {
    "name": "solc",
    "version": "0.8.10+commit.fc410830.Emscripten.clang"
  },
  "schemaVersion": "3.4.10",
  "updatedAt": "2022-11-07T05:40:31.566Z",
  "networkType": "ethereum",
  "devdoc": {
    "kind": "dev",
    "methods": {},
    "version": 1
  },
  "userdoc": {
    "kind": "user",
    "methods": {},
    "version": 1
  }
}